{
    "_format": "hh-sol-artifact-1",
    "contractName": "Booking",
    "sourceName": "contracts/Booking.sol",
    "abi": [
        {
            "anonymous": false,
            "inputs": [
                {
                    "indexed": true,
                    "internalType": "address",
                    "name": "payee",
                    "type": "address"
                },
                {
                    "indexed": false,
                    "internalType": "uint256",
                    "name": "endtime",
                    "type": "uint256"
                },
                {
                    "indexed": false,
                    "internalType": "uint256",
                    "name": "weiAmount",
                    "type": "uint256"
                }
            ],
            "name": "Booked",
            "type": "event"
        },
        {
            "anonymous": false,
            "inputs": [
                {
                    "indexed": true,
                    "internalType": "address",
                    "name": "notBribe",
                    "type": "address"
                },
                {
                    "indexed": false,
                    "internalType": "uint256",
                    "name": "weiAmount",
                    "type": "uint256"
                }
            ],
            "name": "Burned",
            "type": "event"
        },
        {
            "anonymous": false,
            "inputs": [
                {
                    "indexed": true,
                    "internalType": "address",
                    "name": "previousOwner",
                    "type": "address"
                },
                {
                    "indexed": true,
                    "internalType": "address",
                    "name": "newOwner",
                    "type": "address"
                }
            ],
            "name": "OwnershipTransferred",
            "type": "event"
        },
        {
            "anonymous": false,
            "inputs": [
                {
                    "indexed": true,
                    "internalType": "address",
                    "name": "payee",
                    "type": "address"
                },
                {
                    "indexed": false,
                    "internalType": "uint256",
                    "name": "weiAmount",
                    "type": "uint256"
                }
            ],
            "name": "Refunded",
            "type": "event"
        },
        {
            "inputs": [
                {
                    "internalType": "address",
                    "name": "payee",
                    "type": "address"
                },
                {
                    "internalType": "uint256",
                    "name": "endtime",
                    "type": "uint256"
                }
            ],
            "name": "book",
            "outputs": [],
            "stateMutability": "payable",
            "type": "function"
        },
        {
            "inputs": [
                {
                    "internalType": "address",
                    "name": "payee",
                    "type": "address"
                },
                {
                    "internalType": "uint256",
                    "name": "endtime",
                    "type": "uint256"
                }
            ],
            "name": "bookingsOf",
            "outputs": [
                {
                    "internalType": "uint256",
                    "name": "",
                    "type": "uint256"
                }
            ],
            "stateMutability": "view",
            "type": "function"
        },
        {
            "inputs": [
                {
                    "internalType": "address payable",
                    "name": "notBribe",
                    "type": "address"
                },
                {
                    "internalType": "address payable",
                    "name": "payee",
                    "type": "address"
                },
                {
                    "internalType": "uint256",
                    "name": "endtime",
                    "type": "uint256"
                }
            ],
            "name": "burn",
            "outputs": [],
            "stateMutability": "nonpayable",
            "type": "function"
        },
        {
            "inputs": [],
            "name": "owner",
            "outputs": [
                {
                    "internalType": "address",
                    "name": "",
                    "type": "address"
                }
            ],
            "stateMutability": "view",
            "type": "function"
        },
        {
            "inputs": [
                {
                    "internalType": "address payable",
                    "name": "payee",
                    "type": "address"
                },
                {
                    "internalType": "uint256",
                    "name": "endtime",
                    "type": "uint256"
                }
            ],
            "name": "refund",
            "outputs": [],
            "stateMutability": "nonpayable",
            "type": "function"
        },
        {
            "inputs": [
                {
                    "internalType": "address",
                    "name": "payee",
                    "type": "address"
                },
                {
                    "internalType": "uint256",
                    "name": "endtime",
                    "type": "uint256"
                }
            ],
            "name": "release",
            "outputs": [],
            "stateMutability": "nonpayable",
            "type": "function"
        },
        {
            "inputs": [],
            "name": "renounceOwnership",
            "outputs": [],
            "stateMutability": "nonpayable",
            "type": "function"
        },
        {
            "inputs": [
                {
                    "internalType": "address payable",
                    "name": "payee",
                    "type": "address"
                },
                {
                    "internalType": "uint256",
                    "name": "endtime",
                    "type": "uint256"
                }
            ],
            "name": "returnFunds",
            "outputs": [],
            "stateMutability": "nonpayable",
            "type": "function"
        },
        {
            "inputs": [
                {
                    "internalType": "address",
                    "name": "newOwner",
                    "type": "address"
                }
            ],
            "name": "transferOwnership",
            "outputs": [],
            "stateMutability": "nonpayable",
            "type": "function"
        }
    ],
    "bytecode": "0x608060405234801561001057600080fd5b5061002d61002261003260201b60201c565b61003a60201b60201c565b6100fe565b600033905090565b60008060009054906101000a900473ffffffffffffffffffffffffffffffffffffffff169050816000806101000a81548173ffffffffffffffffffffffffffffffffffffffff021916908373ffffffffffffffffffffffffffffffffffffffff1602179055508173ffffffffffffffffffffffffffffffffffffffff168173ffffffffffffffffffffffffffffffffffffffff167f8be0079c531659141344cd1fd0a4f28419497f9722a3daafe3b4186f6b6457e060405160405180910390a35050565b6111838061010d6000396000f3fe6080604052600436106100865760003560e01c8063715018a611610059578063715018a6146101365780638da5cb5b1461014d57806390d9b80414610178578063f2fde38b146101a1578063f6b911bc146101ca57610086565b80630357371d1461008b57806303efb5c4146100b4578063410085df146100d0578063493f31b5146100f9575b600080fd5b34801561009757600080fd5b506100b260048036038101906100ad9190610b86565b6101f3565b005b6100ce60048036038101906100c99190610b86565b610236565b005b3480156100dc57600080fd5b506100f760048036038101906100f29190610c04565b610301565b005b34801561010557600080fd5b50610120600480360381019061011b9190610b86565b61049d565b60405161012d9190610c53565b60405180910390f35b34801561014257600080fd5b5061014b6104c7565b005b34801561015957600080fd5b506101626104db565b60405161016f9190610c7d565b60405180910390f35b34801561018457600080fd5b5061019f600480360381019061019a9190610c04565b610504565b005b3480156101ad57600080fd5b506101c860048036038101906101c39190610c98565b61065a565b005b3480156101d657600080fd5b506101f160048036038101906101ec9190610cc5565b6106de565b005b6101fb61087c565b600180600061020a85856108fa565b815260200190815260200160002060020160006101000a81548160ff0219169083151502179055505050565b60003490506040518060600160405280828152602001838152602001600015158152506001600061026786866108fa565b8152602001908152602001600020600082015181600001556020820151816001015560408201518160020160006101000a81548160ff0219169083151502179055509050508273ffffffffffffffffffffffffffffffffffffffff167f7725e7ff10d8b23269611d069644a270d1ac0182073732e9d53b78d35170b97f83836040516102f4929190610d18565b60405180910390a2505050565b600061030d83836108fa565b905060006001600083815260200190815260200160002060405180606001604052908160008201548152602001600182015481526020016002820160009054906101000a900460ff161515151581525050905080604001518061036f57508242115b6103ae576040517f08c379a00000000000000000000000000000000000000000000000000000000081526004016103a590610dc4565b60405180910390fd5b604051806060016040528060008152602001600081526020016000151581525060016000848152602001908152602001600020600082015181600001556020820151816001015560408201518160020160006101000a81548160ff02191690831515021790555090505061044581600001518573ffffffffffffffffffffffffffffffffffffffff1661092d90919063ffffffff16565b8373ffffffffffffffffffffffffffffffffffffffff167fd7dee2702d63ad89917b6a4da9981c90c4d24f8c2bdfd64c604ecae57d8d0651826000015160405161048f9190610c53565b60405180910390a250505050565b6000600160006104ad85856108fa565b815260200190815260200160002060000154905092915050565b6104cf61087c565b6104d96000610a21565b565b60008060009054906101000a900473ffffffffffffffffffffffffffffffffffffffff16905090565b61050c61087c565b600061051883836108fa565b905060006001600083815260200190815260200160002060405180606001604052908160008201548152602001600182015481526020016002820160009054906101000a900460ff1615151515815250509050604051806060016040528060008152602001600081526020016000151581525060016000848152602001908152602001600020600082015181600001556020820151816001015560408201518160020160006101000a81548160ff02191690831515021790555090505061060281600001518573ffffffffffffffffffffffffffffffffffffffff1661092d90919063ffffffff16565b8373ffffffffffffffffffffffffffffffffffffffff167fd7dee2702d63ad89917b6a4da9981c90c4d24f8c2bdfd64c604ecae57d8d0651826000015160405161064c9190610c53565b60405180910390a250505050565b61066261087c565b600073ffffffffffffffffffffffffffffffffffffffff168173ffffffffffffffffffffffffffffffffffffffff1614156106d2576040517f08c379a00000000000000000000000000000000000000000000000000000000081526004016106c990610e56565b60405180910390fd5b6106db81610a21565b50565b60006106ea83836108fa565b905060006001600083815260200190815260200160002060405180606001604052908160008201548152602001600182015481526020016002820160009054906101000a900460ff16151515158152505090508060400151158061074d57508242105b61078c576040517f08c379a000000000000000000000000000000000000000000000000000000000815260040161078390610ee8565b60405180910390fd5b604051806060016040528060008152602001600081526020016000151581525060016000848152602001908152602001600020600082015181600001556020820151816001015560408201518160020160006101000a81548160ff02191690831515021790555090505061082381600001518673ffffffffffffffffffffffffffffffffffffffff1661092d90919063ffffffff16565b8473ffffffffffffffffffffffffffffffffffffffff167f696de425f79f4a40bc6d2122ca50507f0efbeabbff86a84871b7196ab8ea8df7826000015160405161086d9190610c53565b60405180910390a25050505050565b610884610ae5565b73ffffffffffffffffffffffffffffffffffffffff166108a26104db565b73ffffffffffffffffffffffffffffffffffffffff16146108f8576040517f08c379a00000000000000000000000000000000000000000000000000000000081526004016108ef90610f54565b60405180910390fd5b565b6000828260405160200161090f929190610fdd565b60405160208183030381529060405280519060200120905092915050565b80471015610970576040517f08c379a000000000000000000000000000000000000000000000000000000000815260040161096790611055565b60405180910390fd5b60008273ffffffffffffffffffffffffffffffffffffffff1682604051610996906110a6565b60006040518083038185875af1925050503d80600081146109d3576040519150601f19603f3d011682016040523d82523d6000602084013e6109d8565b606091505b5050905080610a1c576040517f08c379a0000000000000000000000000000000000000000000000000000000008152600401610a139061112d565b60405180910390fd5b505050565b60008060009054906101000a900473ffffffffffffffffffffffffffffffffffffffff169050816000806101000a81548173ffffffffffffffffffffffffffffffffffffffff021916908373ffffffffffffffffffffffffffffffffffffffff1602179055508173ffffffffffffffffffffffffffffffffffffffff168173ffffffffffffffffffffffffffffffffffffffff167f8be0079c531659141344cd1fd0a4f28419497f9722a3daafe3b4186f6b6457e060405160405180910390a35050565b600033905090565b600080fd5b600073ffffffffffffffffffffffffffffffffffffffff82169050919050565b6000610b1d82610af2565b9050919050565b610b2d81610b12565b8114610b3857600080fd5b50565b600081359050610b4a81610b24565b92915050565b6000819050919050565b610b6381610b50565b8114610b6e57600080fd5b50565b600081359050610b8081610b5a565b92915050565b60008060408385031215610b9d57610b9c610aed565b5b6000610bab85828601610b3b565b9250506020610bbc85828601610b71565b9150509250929050565b6000610bd182610af2565b9050919050565b610be181610bc6565b8114610bec57600080fd5b50565b600081359050610bfe81610bd8565b92915050565b60008060408385031215610c1b57610c1a610aed565b5b6000610c2985828601610bef565b9250506020610c3a85828601610b71565b9150509250929050565b610c4d81610b50565b82525050565b6000602082019050610c686000830184610c44565b92915050565b610c7781610b12565b82525050565b6000602082019050610c926000830184610c6e565b92915050565b600060208284031215610cae57610cad610aed565b5b6000610cbc84828501610b3b565b91505092915050565b600080600060608486031215610cde57610cdd610aed565b5b6000610cec86828701610bef565b9350506020610cfd86828701610bef565b9250506040610d0e86828701610b71565b9150509250925092565b6000604082019050610d2d6000830185610c44565b610d3a6020830184610c44565b9392505050565b600082825260208201905092915050565b7f446f6573206e6f74206d65657420636f6e646974696f6e7320666f722072656660008201527f756e640000000000000000000000000000000000000000000000000000000000602082015250565b6000610dae602383610d41565b9150610db982610d52565b604082019050919050565b60006020820190508181036000830152610ddd81610da1565b9050919050565b7f4f776e61626c653a206e6577206f776e657220697320746865207a65726f206160008201527f6464726573730000000000000000000000000000000000000000000000000000602082015250565b6000610e40602683610d41565b9150610e4b82610de4565b604082019050919050565b60006020820190508181036000830152610e6f81610e33565b9050919050565b7f446f6573206e6f74206d65657420636f6e646974696f6e7320666f722062757260008201527f6e00000000000000000000000000000000000000000000000000000000000000602082015250565b6000610ed2602183610d41565b9150610edd82610e76565b604082019050919050565b60006020820190508181036000830152610f0181610ec5565b9050919050565b7f4f776e61626c653a2063616c6c6572206973206e6f7420746865206f776e6572600082015250565b6000610f3e602083610d41565b9150610f4982610f08565b602082019050919050565b60006020820190508181036000830152610f6d81610f31565b9050919050565b60008160601b9050919050565b6000610f8c82610f74565b9050919050565b6000610f9e82610f81565b9050919050565b610fb6610fb182610b12565b610f93565b82525050565b6000819050919050565b610fd7610fd282610b50565b610fbc565b82525050565b6000610fe98285610fa5565b601482019150610ff98284610fc6565b6020820191508190509392505050565b7f416464726573733a20696e73756666696369656e742062616c616e6365000000600082015250565b600061103f601d83610d41565b915061104a82611009565b602082019050919050565b6000602082019050818103600083015261106e81611032565b9050919050565b600081905092915050565b50565b6000611090600083611075565b915061109b82611080565b600082019050919050565b60006110b182611083565b9150819050919050565b7f416464726573733a20756e61626c6520746f2073656e642076616c75652c207260008201527f6563697069656e74206d61792068617665207265766572746564000000000000602082015250565b6000611117603a83610d41565b9150611122826110bb565b604082019050919050565b600060208201905081810360008301526111468161110a565b905091905056fea2646970667358221220c38e4d3abdf396b3e428e70f7440a6d94cc55837310345a09d0ab296a7d9896264736f6c63430008090033",
    "linkReferences": {},
    "deployedLinkReferences": {}
}